:020000040800F2
:10000000A008002039020008E31600089116000835
:10001000E11600082F0400088D1A000800000000F7
:10002000000000000000000000000000E7160008CB
:10003000B904000800000000E5160008E9160008F1
:10004000530200085302000853020008530200083C
:10005000530200085302000853020008530200082C
:10006000530200085302000853020008530200081C
:10007000530200085302000853020008530200080C
:100080005302000853020008530200080000000059
:100090000000000000000000000000005302000803
:1000A00053020008530200085302000853020008DC
:1000B00053020008530200085302000853020008CC
:1000C00053020008530200085302000853020008BC
:1000D000530200081D1A0008530200080000000027
:1000E00053020008530200085302000800000000F9
:1000F00000000000000000000000000053020008A3
:1001000000000000530200085302000853020008D8
:1001100000000000000000000000000000000000DF
:10012000530200085302000853020008530200085B
:100130005302000800000000000000000000000062
:100140000000000000000000000000005302000852
:10015000530200083104000853020008291A00085D
:1001600053020008530200080000000000000000D5
:10017000000000000000000000000000000000007F
:100180000000000053020008000000000000000012
:10019000530200085302000800F002F800F03CF897
:1001A0000AA090E8000C82448344AAF10107DA45D2
:1001B00001D100F031F8AFF2090EBAE80F0013F0E8
:1001C000010F18BFFB1A43F001031847F81900008C
:1001D000181A0000103A24BF78C878C1FAD852071C
:1001E00024BF30C830C144BF04680C6070470000B1
:1001F0000023002400250026103A28BF78C1FBD830
:10020000520728BF30C148BF0B6070471FB501F0CF
:10021000C3FC1FBD10B510BD00F0CFF81146FFF7AD
:10022000F5FF01F045FC00F0EDF803B4FFF7F2FF35
:1002300003BC00F0F5F80000094880470948004772
:10024000FEE7FEE7FEE7FEE7FEE7FEE7FEE7FEE786
:10025000FEE7FEE704480549054A064B70470000E3
:100260006917000899010008A0020020A0080020DA
:10027000A0040020A004002053EA020C00F06980D2
:100280002DE9F04B4FF00006002B1FBFB3FA83F5AA
:1002900003FA05F424FA05F65E4012BF1643B2FADB
:1002A00082F502FA05F4C5F120051EBF22FA05FC0D
:1002B00044EA0C04203556EA044C4FEA144418BFB3
:1002C000641C4FF000084FF00009904271EB030CE2
:1002D00039D3002919BFB1FA81F701FA07F6B0FA4C
:1002E00080F700FA07F6C7F120071EBF20FA07FCC7
:1002F00046EA0C062037B6FBF4FCA7EB0507103FD7
:1003000007F01F0BCBF120060CFA0BFB2CFA06F6BC
:1003100044BFB3460026202FA4BF5E464FF0000B1B
:100320005BEA060C08BF4FF0010B19EB0B09ABFBA6
:10033000027C48EB0608C01B06FB02CC0BFB03CC7F
:1003400071EB0C01C1E70B46024641464846BDE849
:10035000F08B13B54FF000004FF00001AFF30080B9
:10036000BDE81C4070474FF0000200B513469446AC
:100370009646203922BFA0E80C50A0E80C50B1F1FD
:100380002001BFF4F7AF090728BFA0E80C5048BF11
:100390000CC05DF804EB890028BF40F8042B08BFAF
:1003A000704748BF20F8022B11F0804F18BF00F8AB
:1003B000012B7047704770477047754600F02CF866
:1003C000AE4605006946534620F00700854618B042
:1003D00020B5FFF73FFFBDE820404FF000064FF08B
:1003E00000074FF000084FF0000B21F00701AC466A
:1003F000ACE8C009ACE8C009ACE8C009ACE8C00989
:100400008D46704710B50446AFF300802046BDE826
:100410001040FFF70ABF0000004870473C02002070
:1004200001491820ABBEFEE7260002007047FEE738
:10043000014800F09FB80000DC010020016818238B
:10044000CAB2103AB2FBF3F2054B6FF30901032A6B
:100450009B5CC36500D9091D816508467047000093
:10046000A21B000810B5014600208B698A6A4FF074
:10047000C07453B1B3F5005F15D072B1012A0CD02E
:10048000022A0AD0032A09D104E01AB1012A06D0AF
:10049000022A03D1C96AC90100D5012010BDC96A69
:1004A000A142FAD010BD002AF7D0012AF2D0022AC8
:1004B000F3D0032AF3D010BD704772B6FEE72DE9E2
:1004C000F0410446876D00F07FFA064694F8350047
:1004D0000025022806D08020606584F83450012071
:1004E000BDE8F0812068016821F0160101602068F4
:1004F000416921F080014161206C08B9A06C20B1F4
:100500002068016821F0080101602068016821F07D
:10051000010101600CE000F057FA801B052807D9A3
:1005200020206065032084F8350084F83450D7E734
:1005300020680068C007EED194F85C103F20884026
:10054000B860012084F8350084F834500020C7E7F3
:1005500090F83510022903D08021416501207047B1
:10056000052180F835100068016821F00101016063
:10057000002070472DE9F84304464FF00009CDF8FC
:10058000009063484FF41651A56D0068B0FBF1F779
:100590002E6894F85C10082000FA01F131420FD067
:1005A00021680A6852070BD50A6822F004020A6023
:1005B00094F85C108840A860606D40F001006065B0
:1005C00094F85C104FF0010808FA01F0304208D0AE
:1005D00021684969090604D5A860606D40F00200F1
:1005E000606594F85C1004208840304208D021688F
:1005F0000968890704D5A860606D40F00400606553
:1006000094F85C1010208840304218D021680968A6
:10061000090714D5A86020680168490304D500685B
:10062000000308D5A16C07E00168C90503D401687F
:1006300021F008010160216C09B12046884794F837
:100640005C1020208840304231D021680968C906FA
:100650002DD5A86094F8350005282068016806D0DB
:10066000490347D5006800031DD4616C1CE021F0EC
:10067000160101602068416921F080014161206C10
:1006800008B9A06C20B12068016821F00801016060
:1006900094F85C103F208840A86084F8358084F886
:1006A0003490216D1FE0E16B09B120468847606DF1
:1006B00000282BD0606DC00714D0052084F83500C9
:1006C0002068016821F0010101600098401C009041
:1006D000B84203D820680068C007F6D184F8358096
:1006E00084F83490E16C002910D001B02046BDE8B8
:1006F000F04308470168C905D5D4016821F010010D
:10070000016084F8358084F83490CCE7BDE8F88344
:10071000100000202DE9F041044600F055F906468E
:100720005CB1022084F83500002584F8345020683C
:10073000016821F0010101600DE00120BDE8F081B8
:1007400000F042F9801B052805D9202060650320B0
:1007500084F83500F2E720680068C007F0D122680D
:10076000116820480140D4E901031843D4E9033655
:100770003343184363691843A3691843E369184373
:10078000236A18430843616A042903D1D4E90B138F
:1007900019430843106020684069666A20F0070129
:1007A00030460E43012704280CD1A06A0643E06AB4
:1007B00040B12046FFF756FE20B14020606584F826
:1007C0003570BAE7206846612046FFF737FE94F897
:1007D0005C203F2191408160656584F83570002080
:1007E000ACE700003F8010F02DE9F84FDFF8B8A12A
:1007F0000022012403254FF00F090AF1040BAAF18E
:10080000040E00BF0B6804FA02F63340B34273D102
:100810000F7907F00307012F01D0022F16D1876847
:100820004FEA420805FA08FC27EA0C07D1F80CC089
:100830000CFA08FC4CEA070CC0F808C04768B7433C
:100840000E79C6F3001696403E4346600E79F64395
:10085000B6070DD0C768560005FA06FC27EA0C0754
:10086000D1F808C00CFA06FC4CEA070CC0F80CC022
:100870000E7906F00306022E10D1D60800EB86088A
:10088000D8F8206057074FEAD76C09FA0CF7BE4337
:100890000F6907FA0CF73743C8F8207006684FEA6B
:1008A000420C05FA0CF7BE430F7907F0030707FA6D
:1008B0000CF7374307604E6816F4403F6DD03B4E4F
:1008C000376847F480473760366822F0030706F43C
:1008D00080460096364E07EB060CDCF80868970752
:1008E0003F0F09FA07F826EA0806DFF8C8804045F6
:1008F00003D14FF000081EE04FE0DFF8BC80404518
:1009000002D14FF0010816E0DFF8B080404502D177
:100910004FF002080FE0DFF8A880404502D14FF009
:10092000030808E0DFF89C80404502D14FF004083E
:1009300001E04FF0070808FA07F848EA0608CCF883
:100940000888DAF800605746D1F804C09E435FEA91
:10095000CC2C00D51E433E60DBF800605F46D1F82A
:1009600004C09E435FEA8C2C00D51E433E60DEF837
:1009700000607746D1F804C09E435FEA8C3C00D506
:100980001E433E60084F083F3E68D1F804C09E43B6
:100990005FEACC3C00D51E433E60521C102AFFF497
:1009A00031AFBDE8F88F0000083C014044380240F8
:1009B00000300140000002400004024000080240F4
:1009C000000C02400010024001488068704700009F
:1009D0000400002090F83C10012912D0012100F8F9
:1009E0003C1F2421417050F83C1CCA6822F00C02C4
:1009F00042F00402CA6020214170002101700846C3
:100A000070470220704790F83C10012912D0012154
:100A100000F83C1F2421417050F83C1CCA6822F0A9
:100A20000C0242F00802CA602021417000210170CE
:100A3000084670470220704770B5040004D094F84F
:100A40003D00002510B106E0012070BD84F83C5047
:100A5000204600F0DFFC242084F83D002068C168B7
:100A600021F40051C160204600F016FF20680169A2
:100A700021F4904101612068416921F02201416126
:100A80002068416941F0080141612068C16841F472
:100A90000051C1602564202084F83D0084F83E00A8
:100AA000002070BD0248816802781144816070475F
:100AB000040000200B4810B5016841F4007101608A
:100AC000016841F480610160016841F48071016056
:100AD000032000F06FF80F2000F006F800F024F873
:100AE000002010BD003C024070B50D4D04464FF48F
:100AF0007A712878B1FBF0F00A490968B1FBF0F08F
:100B000000F00CFB48B9102C07D200222146501EE1
:100B100000F030F800206C6070BD012070BD000056
:100B200004000020100000200A4808B5016841F4C4
:100B300080410160006800F4804000900548001F7B
:100B4000016841F080510160006800F08050009021
:100B500008BD000044380240002809DB00F01F02F5
:100B6000012191404009800000F1E020C0F800110F
:100B700070470000F0B40E4B1B680C46C3F3022311
:100B8000C3F10705042D00D90425191D072901D239
:100B9000002300E0DB1E012606FA05F1491E214074
:100BA00099409E40761E16403143F0BC00F06FBF66
:100BB0000CED00E0064900F0070208684FF6FF035D
:100BC000184040EA0220034A1043086070470000C2
:100BD0000CED00E00000FA052DE9F0470E46050097
:100BE00065D0DFF81481D8F80000F7B200F00700F4
:100BF000B04207D288F80070D8F8000000F0070073
:100C0000B04254D128683D4C810712D5400703D526
:100C1000206840F4E05020602878000703D5206861
:100C200040F4604020602068A96820F0F00008438C
:100C300020602878C0072DD030496868083901281D
:100C400012D0022813D0032811D00968890700297F
:100C50002DDA216821F0030101432160FFF7B4FE82
:100C6000814641F2883A0EE009688903EFE7096896
:100C70008901ECE7FFF7A8FEA0EB0901514502D975
:100C80000320BDE8F0872068696800F00C00B0EB35
:100C9000810FEFD1D8F80010404601F00701B142B2
:100CA00007D90770006800F00700B04201D00120AA
:100CB000E7E72878400705D52068E96820F4E05088
:100CC000084320602878000706D52068296920F4A9
:100CD000604040EAC100206000F038F82168084A0E
:100CE000C1F30311515CC84006490860064800681A
:100CF000FFF7FAFE0020C4E7003C0240083802403B
:100D0000AA1B000810000020080000200448054924
:100D100000680968044AC1F38221515CC8407047E9
:100D20001000002008380240BA1B0008044805499A
:100D300000680968044AC1F34231515CC8407047F9
:100D40001000002008380240BA1B0008154810B5F2
:100D5000006810F00C02144813D01449042A0FD074
:100D6000082A0ED10F4C241F2268236802F03F028C
:100D70005B0207D52068C0F38810A0FB010106E0E4
:100D8000084610BD2168C1F38811A1FB00010023B2
:100D9000FFF772FA2168C1F30141491C4900B0FB19
:100DA000F1F010BD083802400024F40040787D01C5
:100DB0002DE9F84F04006ED02078DFF84C93C0077F
:100DC000A9F104054AD009F104000168C1F38101C9
:100DD000012908D00068C0F3810002280AD1D9F89F
:100DE0000000400206D52868800337D560680028D7
:100DF000E1D033E06068B0F5803F10D0B0F5A02FAF
:100E0000286810D020F480302860286820F48020E2
:100E100028606068A8B1FFF7D7FD06460DE0286896
:100E200040F48030F4E740F480202860F7E700BF0A
:100E3000FFF7CAFD801B642873D828688003F7D5A4
:100E40000CE0FFF7C1FD064605E000BFFFF7BCFD63
:100E5000801B6428F0D828688003F7D42078DFF856
:100E6000AC8280074FF0000A3ED5A748001D0168FC
:100E700011F00C0F08D00068C0F3810002280BD1DC
:100E8000D9F80000400207D42868800716D5E0682A
:100E9000012800D112E033E1E068B8B10120C8F8C0
:100EA0000000FFF791FD064605E000BFFFF78CFD4F
:100EB000801B0228C0D828688007F7D528682169D8
:100EC00020F0F80040EAC10028600DE0C8F800A05A
:100ED000FFF77AFD064604E0FFF776FD801B022847
:100EE0001FD828688007F7D42078000722D5864FBE
:100EF00087486169703771B101210160FFF764FDB6
:100F0000064604E0FFF760FD801B022809D8386818
:100F10008007F7D50EE0C0F800A0FFF755FD0646A4
:100F200005E082E0FFF750FD801B02287DD838687D
:100F30008007F7D42078400768D5DFF8CCB10027C8
:100F40000BF13C0BDBF80000C0000BD4DBF8001009
:100F500041F08051CBF80010DBF80000012700F0D1
:100F6000805000906B4E3068C00510D4306840F45B
:100F700080703060FFF728FD009005E0FFF724FD4A
:100F80000099401A022850D83068C005F6D55E4E48
:100F9000A0686C3601280FD00528306810D020F0EA
:100FA00001003060306820F004003060A068B8B103
:100FB000FFF70AFD00900FE0306840F00100F4E711
:100FC00040F004003060F7E7FFF7FEFC0099411A9B
:100FD00041F28830814266D830688007F4D50EE04F
:100FE000FFF7F2FC009007E0FFF7EEFC0099411AD2
:100FF00041F28830814256D830688007F4D42FB14E
:10100000DBF8001021F08051CBF80010A069C8B3C4
:101010003D49091D0968C1F3810102294AD002280E
:10102000504607D0C8F8600000E03CE0FFF7CCFC79
:1010300004463BE04746C8F86000FFF7C5FC06469B
:1010400005E000BFFFF7C0FC801B02282BD82868F2
:101050008001F7D4D4E907010843A16A2E4A490860
:1010600002EB0141626A41EA8211084394F82C10B4
:1010700040EA0161C9F8001001203866FFF7A4FCBE
:10108000044606E03EE000BFFFF79EFC001B02287E
:1010900009D828688001F7D534E000BFFFF794FC39
:1010A000001B022802D90320BDE8F88F28688001C0
:1010B000F4D427E00128F7D0D9F80000E26900F461
:1010C000800191421CD1226A00F03F01914217D168
:1010D00047F6C071626A0140B1EB821F10D1A26A6B
:1010E0004FF0FF3300F4403103EB5202B1EB024FFB
:1010F00006D194F82C1000F07060B0EB016F01D0B5
:101100000120D1E70020CFE7043802400000474229
:10111000800E4742007000400000FFFF10B5401EE7
:10112000B0F1807F01D3012010BD4FF0E024606159
:101130000F21601700F0ABFC0020A06107202061A8
:10114000002010BD70477047F8B501680446086874
:10115000CA684B6910F00F0F4FF0000559D003F02B
:10116000010602F49077374365D0C10705D0D10559
:1011700003D5216C41F001012164410705D5D90750
:1011800003D0216C41F002012164810705D5D90704
:1011900003D0216C41F004012164010707D502F05E
:1011A0002001314303D0216C41F008012164216CFE
:1011B00000293AD0800604D5900602D5204600F0DA
:1011C0000AFB20684069216CC0F38010090700D435
:1011D00060B3204600F0D8FA20684069400621D567
:1011E0002068143050E8001F21F0400140E8001250
:1011F000002AF5D1A06BA8B16C490165A06BFFF77F
:10120000A7F9002811D0A06B016D01B0BDE8F04036
:10121000084783060FD593060DD52046BDE8F84054
:1012200000F0D9BA2046FFF78EFFF8BD2046FFF741
:101230008AFF2564F8BD266B2023012E79D1C606CE
:1012400077D5D60675D50868486800904869400685
:1012500040D5A16B086840680004000CEAD0A28D5C
:101260008242E7D9E085C869B0F5807F2DD020683B
:101270000C3050E8001F21F4807140E80012002A71
:10128000F5D12068143050E8001F21F0010140E83A
:101290000012002AF5D12068143050E8001F21F018
:1012A000400140E80012002AF5D184F83E30256361
:1012B00020680C3050E8001F21F0100140E80012B7
:1012C000002AF5D1A06BFFF7FAF8A08DE18D401A46
:1012D00081B229E0A08DE18D401A81B2E08D002815
:1012E000A8D00029A6D020680C3050E8002F22F4A6
:1012F000907240E80026002EF5D12068143050E8A6
:10130000002F22F0010240E80026002EF5D184F8DB
:101310003E30256320680C3050E8002F22F0100288
:1013200040E80023002BF5D12046FFF70BFFF8BD66
:10133000FFE705062BD5150629D594F83D00212891
:10134000F5D1A068B0F5805F01D12069B0B1206A05
:10135000411C2162216800784860E08C401E000436
:10136000000CE084E3D12068C16821F08001C160F5
:101370002068C16841F04001C160D8E7206A008858
:10138000C0F308004860206A801C2062E5E7400640
:10139000CDD55006CBD5CA68204622F04002CA609F
:1013A00084F83D3000F073F9C1E7000079170008B8
:1013B00070B5040004D094F83D00002510B106E09B
:1013C000012070BD84F83C50204600F023F8242012
:1013D00084F83D002068C16821F40051C1602046B6
:1013E00000F05AFA2068016921F4904101612068F7
:1013F000416921F02A0141612068C16841F400512E
:10140000C1602564202084F83D0084F83E0000205F
:1014100070BD0000F0B587B0064614216846FEF79F
:10142000A2FF3849364F3468002536481439032264
:10143000354BBC4222D1046844F0100404600068BB
:1014400000F010000590086840F00100086008688E
:1014500000F001000590481500901220CDE901052B
:101460000720CDE9032069461846FFF7BDF90022A1
:1014700011462520FFF77EFB25203DE0234FBC428F
:101480003CD1046844F020040460006800F02000AF
:101490000590086840F0010008600868694600F09F
:1014A000010005904FF4C05000900220CDE90105E5
:1014B0000820CDE903201846FFF796F9154C14488B
:1014C00020604FF0206060604020C4E90205000108
:1014D000C4E90405A561E561256220466562FFF760
:1014E00019F908B1FEF7E9FF74630022114647209D
:1014F000A663FFF73FFB4720FFF72EFB07B0F0BDC9
:101500000010014044380240000002400014014035
:10151000A0640240DC0100202DE9F84F044690F859
:101520003E009A4616460D46202853D1FDB1F6B12D
:1015300094F83C0001284DD0012084F83C0000279D
:101540002764222084F83E002763FFF73DFAA68532
:101550008146E685A0684FF48058404501D1206956
:1015600040B12E465FF0000584F83C7027E0012072
:10157000BDE8F88F0026F7E74B46002220212046E1
:10158000CDF800A000F00EFA08B10320F0E726B174
:10159000A06840451BD038B108E020684068C0F31F
:1015A000080025F8020B07E0206980B12068406838
:1015B00000F07F0006F8010BE08D401EE085E08D15
:1015C0000028D9D1202084F83E000020D0E72068F0
:1015D0004068EFE70220CBE7704700002DE9F843B1
:1015E000044690F83D001F4616460D4620284CD173
:1015F000C5B1BEB194F83C00012846D0012084F862
:101600003C004FF00008C4F84080212084F83D00E1
:10161000FFF7DAF9A6848146E684A068B0F5805F1A
:1016200003D004E00120BDE8F883206928B12E46EC
:101630005FF0000584F83C800EE00026FAE7802188
:10164000204600F0AFF9A0B9AEB116F8010B216841
:101650004860E08C401EE084E08C4B464FF0000276
:1016600000970028EBD14FF04001204600F09AF996
:1016700030B10320D7E735F8020BC0F30800E6E7E6
:10168000202084F83D000020CDE70220CBE7704702
:10169000FEE70000104810B50E4901604FF46141AB
:1016A0004160002181600C22C160C0E904128161A7
:1016B000C161FFF77DFE08B172B6FEE707498020E1
:1016C000C1F8000103480C30016841F024010160B9
:1016D00010BD0000001401409801002008E000E067
:1016E000FEE7FEE770477047FFF7DCB910B592B030
:1016F00030216846FEF737FE14210CA8FEF733FEB2
:1017000017480024016841F080510160006800F032
:10171000805011901348016841F440410160006815
:10172000069400F4404011900220009001200390A4
:10173000102004906846FFF73BFB08B172B6FEE745
:101740000F20CDE90C040E940F9400210CA81094E6
:10175000FFF742FA002801D072B6FEE712B010BDC2
:1017600040380240007000400248016841F47001B6
:101770000160704788ED00E010B5806B0021C185E5
:10178000C184FFF7E0FC10BD01680C3151E8002F67
:1017900022F4907241E80023002BF5D10168143146
:1017A00051E8002F22F0010241E80023002BF5D17F
:1017B000016B012909D101680C3151E8002F22F099
:1017C000100241E80023002BF5D1202180F83E10C3
:1017D00000210163704708B590F83E10222901D01E
:1017E000022008BD82684FF480539A4201D10169FA
:1017F00021B1816A9A421BD04AB10AE00268816A2B
:101800005268C2F308020A80816A891C08E00269F2
:1018100072B10268526802F07F020A70816A491C44
:101820008162C18D491E0904090CC18503D019E0EC
:1018300002685268F1E70168CA6822F02002CA60B3
:101840000168CA6822F48072CA6001684A6922F09D
:1018500001024A61202180F83E10016B012903D06A
:10186000FFF7BAFE002008BD0021016301680C31BA
:1018700051E8002F22F0100241E80023002BF5D19F
:1018800001680A68D20602D50A6849680091818D0C
:10189000FFF758FCE6E7000070B5044600680169F0
:1018A000E26821F44051114301612169A068E269B5
:1018B00008436169114308432168CA6849F20C630F
:1018C0009A430243CA6020684169A26921F44071C9
:1018D0001143416131492068884202D03049884231
:1018E00002D1FFF723FA01E0FFF710FAE2690023C3
:1018F000192164253226B2F5004F626828D0A0FB7A
:101900000101930F9200FEF7B7FC0146B0FBF5F022
:101910006FF01802504301EB800006EB0010B0FBA3
:10192000F5F000F0F002B1FBF5F002EB0012B1FBB4
:10193000F5F06FF01803584301EB800006EB001040
:10194000B0FBF5F000F00F0021681044886070BD16
:10195000A0FB010192185B41FEF78EFC0146B0FB33
:10196000F5F00201B1FBF5F06FF01803584301EBFD
:10197000800006EBC000B0FBF5F000F0F80002EBD1
:101980004002B1FBF5F0584301EB800006EBC000CC
:10199000B0FBF5F000F00700D6E7000000100140B2
:1019A000001401402DE9F041984617460E460446C2
:1019B000069D27E0681C25D02DB1FFF705F8A0EBA8
:1019C0000800A8421ED920680C3050E8001F21F4FE
:1019D000D07140E80012002AF5D12068143050E898
:1019E000001F21F0010140E80012002AF5D120205B
:1019F00084F83D0084F83E00002084F83C00032079
:101A0000BDE8F0812068006836EA000004D00020BC
:101A1000B842CFD00020F3E70120F9E70148FFF7F3
:101A200093BB000054010020124830B4017800221A
:101A300029B94178142902D10121017042700E495F
:101A40000C680E4B41785C540478012C0CD1DB7887
:101A50009B1C8B4208D20A4B1970427009480178CE
:101A600041F00101017001E0491C417030BC0648A1
:101A7000FFF76ABB0200002004140140140000209C
:101A8000010000200000002098010020FEE7090767
:101A9000090E002804DB00F1E02080F800147047F4
:101AA00000F00F0000F1E02080F8141D70470000E6
:101AB00008B5FEF7FFFFFFF719FE32480024016862
:101AC00041F001010160016801F00101009101682C
:101AD00041F4800101600068224600F4800000901B
:101AE00021464520FFF746F84520FFF735F82748FF
:101AF000254901604DF67C51C0E901140C21C460F8
:101B0000C0E904418461C461FEF796FF08B172B672
:101B1000FEE7FFF7BFFD1D48FEF775FF1C4D1D4C8E
:101B20002078C007FCD01948FEF76DFF62784FF4AB
:101B30007A7317491548521CFFF750FD2879012880
:101B40006078284410F8010C01D0801D00E0401D91
:101B500060700E48FEF73EFF0D4964236278143131
:101B60000A48FFF7D9FC62780949C2EB021043002A
:101B7000143101F5B870FFF731FD207820F0010035
:101B80002070CDE7303802400010014054010020A1
:101B900014000020000000204FF04070E1EE100A19
:101BA0007047000610160006101600000000000026
:101BB00000000102030406070809000000000102FA
:101BC00003040000E41B00080000002014000000D3
:101BD000D4010008F81B0008140000208C08000045
:101BE000F0010008000000000100000010000000EB
:081BF000000000000024F400D5
:040000050800019955
:00000001FF
